:020000040800F2
:10000000C8FE0120150300087B4200082B3C0008B5
:1000100011420008691D0008DDA40008000000006E
:10002000000000000000000000000000B97C000893
:100030001D2E000800000000DB1C0008758500086C
:100040002F0300082F0300082F0300082F030008C8
:100050002F0300082F0300082F0300082F030008B8
:10006000212E0008452E00087D2E00082F030008D1
:100070002F0300082F0300082F0300082F03000898
:100080002F0300082F0300082F0300082F03000888
:100090006D1D0008411E00082F030008B52E000842
:1000A0002F0300082F0300082F0300082F03000868
:1000B0005D860008A98600082F0300082F030008AA
:1000C0002F0300082F0300082F0300082F03000848
:1000D0002F0300082F0300082F030008719F00085A
:1000E0002F0300082F0300082F030008E9870008EA
:1000F0002F0300082F0300082F0300082F03000818
:100100002F030008317B0008998700082F0300089F
:100110002F0300082F0300082F0300082F030008F7
:10012000FD2A00082F0300082F0300082F030008F2
:100130002F0300082F0300082F0300082F030008D7
:10014000151F0008751F00082F0300082F03000863
:10015000F12B00082F030008192C0008859F0008C8
:100160002F0300082F0300082F0300082F030008A7
:100170002F0300082F0300082F0300082F03000897
:100180002F0300082F03000800F002F800F0B2F877
:100190000AA090E8000C82448344AAF10107DA45E2
:1001A00001D100F0A7F8AFF2090EBAE80F0013F082
:1001B000010F18BFFB1A43F00103184720C30000CA
:1001C00040C300000A444FF0000C10F8013B13F04C
:1001D000070408BF10F8014B1D1108BF10F8015BA0
:1001E000641E05D010F8016B641E01F8016BF9D193
:1001F00013F0080F1EBF10F8014BAD1C0C1B09D1EA
:100200006D1E58BF01F801CBFAD505E014F8016B5B
:1002100001F8016B6D1EF9D59142D6D370470000ED
:100220000023002400250026103A28BF78C1FBD8FF
:10023000520728BF30C148BF0B6070476E2900F0DD
:100240004783702900F06B8166290BF027876529A9
:100250000BF0248767290BF0218761290BF0208799
:1002600003681B0A28BF41F08001692900F0DC8087
:10027000642900F0D980752900F0D6806F2900F03C
:100280002686782900F03781E92900F0C185E42924
:1002900000F0BE85F52900F0BB85EF2900F023862C
:1002A000F82900F036810368DB0928BF41F080019E
:1002B000632901F03980732901F03E80E32901F0C0
:1002C0004980F32901F04E80002070471FB50BF0E4
:1002D000E0FE00F013FE0400002000210BF042FAC3
:1002E000401C6060002000210BF026FAE0601FBD7A
:1002F00010B510BD01F0D0F81146FFF7E7FF0AF086
:1003000061FB01F0F7F803B4FFF7F2FF03BC01F063
:10031000FBF800000948804709480047FEE7FEE770
:10032000FEE7FEE7FEE7FEE7FEE7FEE7FEE7FEE7A5
:1003300004480549054A064B7047000091850008AE
:1003400089010008C8F60120C8FE0120C8FA012072
:10035000C8FA012072B6704762B67047EFF310809A
:1003600072B6704780F31088704730BF704720BF67
:100370007047B0FA80F0704790FAA0F0B0FA80F0C1
:10038000704790FAA0F070471CB50C46064B7B44B2
:1003900069460090204600F0C4FC044600206946EF
:1003A00000F0D2FC20461CBDB70900000FB41CB5FC
:1003B000084B06AA7B4469460090059800F0B1FC02
:1003C00004460020694600F0BFFC20461CBC5DF8D6
:1003D00014FB00009109000070B5044685690068AF
:1003E000C10601D5302600E02026C00707D070BD29
:1003F000D4E9012130469047206A401C20626D1EDE
:10040000F6D570BD70B5044685690078C00707D180
:1004100070BDD4E9012120209047206A401C206251
:100420006D1EF6D570BD00002DE9F0410646002492
:1004300010687529314616A510D000F0B5F90028CE
:1004400002DA404213A507E031688A0701D512A5F8
:1004500002E0490704D511A5012401E000F0ADF93F
:1004600000210A2206F1240709E0B0FBF2FCB0FBF0
:10047000F2F302FB1C00303078541846491C002867
:10048000F3D123462A463046BDE8F04100F0C7B913
:10049000000000002D0000002B00000020000000E4
:1004A000F0B40D460188090502D5214C7C4402E0D8
:1004B0001F4C7C440E34002100F1240608E002F0B9
:1004C0000F071209E75D42EA03721B097754491CC2
:1004D00052EA0307F3D102780023120704D5702DE6
:1004E00006D009B1022311342246F0BC00F097B9BE
:1004F00001231034F8E770B504460D462146106814
:1005000000F05BF9024629462046BDE87040002312
:10051000C6E7D21D22F00703D3E90023C0E7036832
:10052000126843F0200303600823C3610023B7E788
:1005300024BE00002DE9F05F894604464FF0000A12
:10054000DFF874B1FB44C0F820A02046E16888477A
:10055000002874D0252806D0D4E901219047206ACC
:10056000401C2062F1E700265F462046E16888478C
:100570002028054607DB312D05D2781910F8200C0C
:1005800008B10643F1E7B00701D526F00406C4F828
:100590001CA00027C4F818A02A2D09D028460AF06C
:1005A0006DF838B304EB8708303DC8F8185019E0EF
:1005B00059F8041B204604EB87029161E1688847E3
:1005C000012F054618D1E069002820DA26F0200620
:1005D0001DE0D8F8180000EB800005EB4000303833
:1005E000C8F818002046E168884705460AF046F832
:1005F0000028EED1012F0AD02E2D08D12046E16827
:1006000088477F1C0546022F46F02006C4DBA06900
:10061000002803DA404246F00106A061F00701D04D
:1006200026F010066C2D0BD0682D09D04C2D39D03A
:100630006A2D35D0742D35D07A2D33D016E038E0C0
:10064000E1682F4620468847B842054609D16C2FFD
:1006500026D04FF48060E16806432046884705466F
:1006600004E06C2F1AD04FF4807006430DB3A5F14F
:100670004100192802D8203546F400664A4629462A
:10068000204626604E46FFF7D9FD80B101280BD0E9
:10069000F61D26F0070000F1080956E74020E4E7C0
:1006A0008020D8E70020D6E706F104094DE7284668
:1006B00052E7206ABDE8F09FB4BD00004FF0000291
:1006C00000B5134694469646203922BFA0E80C5048
:1006D000A0E80C50B1F12001BFF4F7AF090728BF23
:1006E000A0E80C5048BF0CC05DF804EB890028BF9F
:1006F00040F8042B08BF704748BF20F8022B11F0C8
:10070000804F18BF00F8012B704700004FF0013CEC
:1007100050F8042B51F8043B9A4221D1A2EB0C0370
:10072000934313EACC1317D150F8042B51F8043B30
:100730009A4215D1A2EB0C03934313EACC130BD1CD
:1007400050F8042B51F8043B9A4209D1A2EB0C0358
:10075000934313EACC13DBD04FF00000704700BF87
:10076000D01A01BAB1FA81F101F0180122FA01F0B0
:10077000CB40C1F12001DBB2C0B2C01A2CFA01F3A8
:10078000D11A914311EAC311E6D1704770477047FF
:10079000704710B500F0B6FB006810BD10B50446F8
:1007A00000F0B0FB046010BD09684A0501D540B2F5
:1007B0007047C905FCD500B2704709684A0501D5E4
:1007C000C0B27047C905FCD580B2704770B50C4601
:1007D0000546012A05D02878800600D5EA6900235D
:1007E00002E0012305E05B1C934202D2E05C00289A
:1007F000F9D1A869E618C01AA861286A18442862C5
:100800002846FFF7E9FD04E0D5E9012114F8010BC2
:100810009047B442F8D32846FFF7F4FD70BD2DE9A8
:10082000F0470D4699469246044600F124080168B7
:10083000880604D5E06921F01001216000E0012064
:10084000A84201DD471B00E00027A1697A1902EBED
:100850000900081AA0612078C00602D42046FFF7DC
:10086000BBFD002608E0D4E901211AF806009047F4
:10087000206A401C761C20624E45F4DB2078C006BE
:100880000AD52046FFF7A8FD06E0D4E90121302073
:100890009047206A401C2062381EA7F10107F4DC53
:1008A00007E0D4E9012118F805009047206A401CB0
:1008B0002062281EA5F10105F3DC2046FFF7A2FD0A
:1008C0002078000602D50220BDE8F0870120FBE772
:1008D00011680268006A530501D508700AE0D30563
:1008E00001D5088006E0130603D5C217C1E900024E
:1008F00000E008600120704770472DE9FF4F0C466B
:100900001E464FF0FF378BB0D2E90001DDF8608062
:100910000A908A46C1F30A5505B93D4600210846AA
:100920004FF00000BAF1000F00F4400005DA00EBD0
:1009300080004FF4400101EA50004FEA9059B9F1AC
:10094000010F00DDB9460A9850EA4A000ED044F67D
:100950001050A5F2FF3545432F14B8F1000F1ED0FB
:100960007542291E1EDDC9F100021CE0B8F1010F1D
:100970004FF0000001D0302103E0F24305E02154A4
:10098000401CB042FBDB30460022002121540B9971
:10099000C1F80880C1E900200FB0BDE8F08FBD1B91
:1009A0006D1CDEE74A4600DA694206A800F0DEFC6C
:1009B00006AB93E8070003AB83E8070050460A99AB
:1009C00000F0A8FD8DE80700A0F500501F3800904A
:1009D0000398002D0ADD42F21F014A460844002315
:1009E00003A90390684601F011F809E0A0F5005052
:1009F0004A461F38002303A90390684601F01BF8FC
:100A00008DE807000004000C03D04FF0FF304108D0
:100A100000E01046B8F1000F03D000220092154606
:100A20001EE0751E05D400F071FA303262556D1E5D
:100A3000F9D5B3460122084302D000227F1C04E00E
:100A40002078302801D100227F1E002A099784D007
:100A50001DE0112D07DA00F059FA303262556D1C95
:100A600050EA0102F5D1084302D00098C8B10EE067
:100A70000021681E05E0235C625C63542254401E22
:100A8000491C8142F7DBAB46A81B401E09900020A1
:100A900004F80B000B98099AC0F80880C0E9002BF5
:100AA0007AE711264FF0000857E72DE9F04F884606
:100AB0000446D21D22F0070191B0D1E90001CDE931
:100AC0000A0109F06DFD02460B98C00F01D02D20E0
:100AD00007E02068810701D52B2002E0202101EAF0
:100AE000C000032A099001D0072A05DB03464146CE
:100AF000204600F0CFFB0BE12078800601D5E069AD
:100B000000E00620B8F1650F814606D0B8F1660F07
:100B100018D0B8F1670F70D131E00020B9F1110F92
:100B2000009001DB112301E009F101030AAA01A9E8
:100B30000CA8FFF7E2FEDDE90C70002609F10105C3
:100B4000834647E001204B4600904FF000470AAA39
:100B500001A90CA8FFF7D1FEDDE90DB00C995D46A7
:100B6000002610B909F101000D18B9EB050003D4F6
:100B7000C0F1FF3609F10105A5EB09002BE0B9F141
:100B8000010F01DA4FF001090020B9F1110F0090B7
:100B9000484601DD112300E003460AAA01A90CA87A
:100BA000FFF7ABFEDDE90C704D460026834620784A
:100BB00000070AD4AB4500DA5D4601A8012D04DD2B
:100BC000411911F8011C302907D04F4502DA17F1FD
:100BD000040F04DA012082460FE06D1EEEE7002FBD
:100BE00002DCED1B3E4403E0781CA84200DD7D1CC6
:100BF000B81B00F1010A4FF000472078000703D42A
:100C0000AA4501DB4FF0FF3A0021B7F1004F0DF18B
:100C100043088DF8431024D002202B23002F01DA43
:100C20007F422D230A21021EA0F1010000DC5FB1EA
:100C300097FBF1FC97FBF1F201FB1C7C17460CF1D2
:100C4000300C08F801CDEEE7A8F10100037021880F
:100C5000090501D5452100E06521A0F1010800F852
:100C6000011C09980FA9A1EB0807FF1D00B1012085
:100C7000411901EBEA70A1693844081A401EA061CD
:100C80002078C00602D42046FFF7A6FB099828B1B9
:100C9000D4E901219047206A401C20622078C006D8
:100CA00022D52046FFF798FB1EE0002E04DBB3455B
:100CB00002DD01A8805D00E03020D4E901219047E9
:100CC000206A401C2062761CAAF101005FEA000A3B
:100CD0000AD100F013F9C0680168405CD4E9012131
:100CE0009047206A401C2062281EA5F10105DCDC2B
:100CF00007E0D4E9012118F8010B9047206A401C55
:100D00002062381EA7F10107F3DC2046FFF77AFBCB
:100D1000032011B041E6000001694A1C0261087815
:100D2000704700B58FB0CDE901310021059105492B
:100D30007944CDE9031011466846FFF7FBFB0FB07D
:100D400000BD0000E5FFFFFF0A6802F8010B0A6022
:100D5000704700002DE9FF5F15468A460446DFF81C
:100D6000AC80F8440027D8E900103E46CDE90010D9
:100D700010E03AF816106A4602A800F069FB411C20
:100D800007D02178890603D5E269391891420DD838
:100D90000744761C2078800602D5E069B84205DD5C
:100DA000AE42E6DB3AF816000028E2D1A069C01B8B
:100DB000A0612046FFF710FBD8E90010CDE9001034
:100DC000002017E03AF818106A4602A800F040FB2D
:100DD000B0F1FF3F81460BD000250DF1080B05E077
:100DE000D4E901211BF8050090476D1C4D45F7D350
:100DF00008F10100B0428046E4DB206A38442062FA
:100E00002046FFF7FFFABDE8FF9F0000AAB50000EB
:100E10002DE9F0418046D21D22F007020025D2E9DB
:100E20000002F52915A614D0011E72F1000106DAA0
:100E30000023D0EB030063EB020211A608E0D8F810
:100E400000108B0701D50FA602E0490701D50EA6B9
:100E500001251146002408F1240704E000F056F8AB
:100E600030323A55641C50EA0102F7D12B46324623
:100E700021464046BDE8F041FFF7D1BC000000002C
:100E80002D0000002B0000002000000030B40021E5
:100E900000F1240408E002F00705D208303542EAE8
:100EA0004372DB086554491C52EA0305F3D1046818
:100EB000002310A2250707D5A40600D421B1C469D8
:100EC00001230DA2641EC46130BCFFF7A8BC10B59D
:100ED000044621461068FFF770FC02462046BDE834
:100EE00010400023D2E7D21D22F00701D1E90023F0
:100EF000CCE7000000000000300000000048704710
:100F000088F601200048704768F6012030B5B0F13E
:100F10000A024FEA900E71F100034EEA817EB0EBB7
:100F20000E0061EB91014FEA101E4EEA017E10EBBC
:100F30000E0041EB11114FEA102E4EEA016E10EB3C
:100F40000E0041EB11214FEA104E4EEA014E10EB1C
:100F50000E0041EB1141401841F100014FEAD00071
:100F600040EA41704FEAD10110EB80054FEA81045D
:100F700044EA907444EB01046D1944EB0404521BE1
:100F8000A3414FF0000348BF0A3200D530BD401CDA
:100F900041F1000130BD00002DE9F04F04460D463F
:100FA000D21D22F0070089B0D0E9009748463946A3
:100FB00009F0F6FA0246F80F01D02D2307E0206869
:100FC000810701D52B2302E0202101EAC0038DF81F
:100FD00020300BB1012000E00020032A824601D01E
:100FE000072A04DB2946204600F054F93FE1207827
:100FF000800601D40D2500E0E569C7F30A560D2DE2
:1010000049DA00214FEA175B08464FF00000002F35
:1010100000F4400007DA00EB80004FF4400100EBE1
:10102000D07001EA60008115012901DD4FF0FF3128
:1010300000224FEA850CBCF1180F06D31346ACF121
:1010400018004FF08052C24003E04FF4801323FA9F
:101050000CF30CF10C0CBCF1200F04D3ACF1200C00
:1010600009FA0CF001E007FA0CF000294FF00048F3
:1010700001DD18B90FE00ED140450CD319EB020980
:101080005F4121B9404502D19F4329EA0209BBEBE8
:10109000175F00D0761C2088000502D57B48784475
:1010A00002E07A487844193808AA302302F80A3056
:1010B000037C0AF10101002E0AF1020A53546A4628
:1010C00002DC4FF0300101E04FF031014FF0010838
:1010D0008DF8001002D0A6F2FF3603E059EA47016E
:1010E00000D06B4E002D02DC2178090704D54FF0AB
:1010F00002082E218DF80110C44600210BE0C7F331
:1011000003433F01C35C491C6D1E02F808300529EA
:1011100008F1010801DA002DF1DC00210CE000EB00
:101120001973491C1B786D1E082902F808304FEA14
:10113000091908F1010801DA002DF0DC21688B069D
:1011400002D516E0A8F10108E04505DD02EB080331
:1011500013F8013C302BF5D0B8F1000F09DD02EB9C
:10116000080313F8013C2E2B03D1090701D4A8F181
:101170000108002D05DD3E2102F808106D1E08F162
:101180000108407C002E02F8080008F1010804DA8A
:101190002D20764202F8080002E02B2002F8080019
:1011A0000A214FF47A70864208F101080BDB96FBA6
:1011B000F0F3303302F8083096FBF0F308F1010841
:1011C00000FB136601E0642E0CDB642096FBF0F359
:1011D000303302F8083096FBF0F308F1010800FB09
:1011E000136601E00A2E06DB96FBF1F0303002F8C0
:1011F000080008F1010896FBF1F001FB10603030A7
:1012000002F80800A16908F1010808EB050202EBE9
:101210000A00081AA0612078C00602D42046FFF711
:10122000DBF8216A08AE01EB0A00206204E0D4E991
:10123000012116F8010B9047BAF1010AF7D2207884
:10124000C00602D52046FFF7C7F86E4609E016F83B
:10125000010B3E280FD0D4E901219047206A401CA1
:101260002062B8F10108F2D22046FFF7CBF809B0AE
:101270000320BDE8F08F206A2844206203E0D4E90F
:101280000121302090476D1EEBD3F8E789B20000B2
:1012900002FCFFFF2DE9F0411F46044603260168CA
:1012A000072A01F4006004DB08B116A505E016A5C5
:1012B00003E008B115A500E015A521F0100020609D
:1012C000A069C01EA0610FB1401EA0612046FFF7BB
:1012D00083F84FB1D4E9012138469047206A401C79
:1012E0002062C01C206206E0206AFAE7D4E90121EE
:1012F00015F8010B9047761EF8D22046FFF782F8CA
:10130000BDE8F0814E414E006E616E00494E4600D0
:10131000696E660010B5436913B1AFF3008001E058
:10132000FFF754FA012010BD127800F124010A7071
:1013300000224A700122EDE711684FF0FF32E9E721
:1013400010B5436913B1AFF3008001E0FFF702FD70
:10135000012010BD128800F1240182840022C28481
:101360000122EDE711684FF0FF32E9E72DE9F04780
:10137000814616468AB0354878440DC88DE80D0080
:1013800032487844801C03AC0DC884E80D0041F657
:101390009B300844372190FBF1F290FBF1F5A5F169
:1013A000800501FB12041B3C02D56442012000E0D1
:1013B0000020DFF898A080460027FA44AAF1BE0A70
:1013C0000EE0E0070AD03246684607EB47010123EA
:1013D0000AEB810100F02FFB8DE8070064107F1CF1
:1013E000002CEED1194F7F44AE3F19E0E80715D02D
:1013F00007EB04100DF1180A90E80E008AE80E00C1
:10140000C068F04201D1981908903246012306A91C
:1014100003A800F010FB03AB83E807006D10641C09
:10142000002DE3D14FF0010332466946B8F1000FB9
:1014300003A802D000F0EAFA01E000F0FCFAC9E9E2
:101440000001C9F808200AB0BDE8F08740B00000EC
:1014500070B516460C46054600F044F8036893F84C
:101460000101012806D0FF2C0FD8185D68B10120BA
:101470002C7070BDD3F807013246214603F20713E2
:1014800003442846BDE8704018474FF0FF3070BD58
:101490000048704768F601207546FFF7F9FFAE4631
:1014A00005006946534620F00700854618B020B570
:1014B000FEF73EFFBDE820404FF000064FF000076A
:1014C0004FF000084FF0000B21F00701AC46ACE8EC
:1014D000C009ACE8C009ACE8C009ACE8C0098D4659
:1014E0007047000010B5FFF709FD001D10BD00BFDB
:1014F00075A2000010B50446AFF300802046BDE899
:101500001040FEF700BF704701491820ABBEFEE750
:10151000260002005FEA400C08BF91F0000F4FEA7E
:101520008C234FEAC12243EA51514FEA1C5018BFA5
:1015300000F5F0404FEA300018BF41F000415FEA8B
:101540006C5C00F02980BCF1FF3F08BF40F0804098
:101550007047130C06BF12044FF0100C4FF0000C34
:10156000130E04BF12020CF1080C130F04BF12017A
:101570000CF1040C930F04BF92000CF1020CD30F7A
:1015800004BF52000CF1010C11464FF00002A0F113
:101590001F00A0EB0C00704711F0004F08BF704710
:1015A00031F000413FF4D5AF0B0C06BF09044FF0FA
:1015B000100C4FF0000C0B0E04BF09020CF1080CCC
:1015C0000B0F04BF09010CF1040C8B0F04BF890041
:1015D0000CF1020CCB0F04BF49000CF1010CCCF153
:1015E0002003A0EB0C0022FA03F302FA0CF241EA0A
:1015F000030100F10100704720F07F4C80EA0300F6
:1016000023F07F47ACEB070303F57C5300F0004069
:1016100003F1FF032DE980494FEA154B09B44FEA66
:10162000144325EA0B4E24EA03480FF2042606EB86
:10163000132749083E785FEA320203FB0667C7F5C5
:10164000000707FB06F64FEA54374FEAD64606F185
:10165000020607FB066CCCF1005C4FEA1C472CEA43
:10166000074C07FB06F40CFB06F504EB15464FEAA6
:10167000961634BF00204FF000404FEAD13706FBEA
:1016800007FC4FEA1C4C0CFB0BF7D21B03FB0CF7BF
:1016900061EB07010CFB0EF7B0EB074072EB174252
:1016A0000CFB08F734BFA2EB0742B2EB074261EB39
:1016B00017414FEA0C444FEA910706FB07FC4FEA3B
:1016C0001C4C0CFB0BF7B0EBC74072EB573203FB23
:1016D0000CF734BFA2EBC742B2EBC74261EB573104
:1016E0000CFB0EF7B0EBC70072EB57720CFB08F760
:1016F00034BFA2EBC702B2EBC70261EB5771039F85
:101700004FEA816141EA921104EBCC044FEAD137F0
:101710004FEA826206FB07FC42EA90124FEA8060C1
:101720004FEA1C4C0CFB0BF7D21B03FB0CF761EBD5
:1017300007010CFB0EF7B0EB074072EB17420CFBF6
:1017400008F734BFA2EB0742B2EB074261EB174147
:101750004FEA8C554FEA910704EB9C2406FB07FCEB
:101760004FEA1C4C0CFB0BF7B0EBC74072EB573247
:1017700003FB0CF734BFA2EBC742B2EBC74261EBED
:1017800057310CFB0EF7B0EBC70072EB57720CFB36
:1017900008F734BFA2EBC702B2EBC70261EB577187
:1017A00015EB4C254FEA816141EA92114FEA8262C2
:1017B0004FEAD13742EA901206FB07FC44F10004DD
:1017C0004FEA80604FEA1C4C0CFB0BF7D21B03FB6B
:1017D0000CF761EB07010CFB0EF7B0EB074072EB67
:1017E00017420CFB08F734BFA2EB0742B2EB0742EB
:1017F00061EB174115EB1C154FEA813141EA92412B
:101800004FEA823242EA90424FEA80304FEA0C7649
:1018100044F1000448EA03434EEA0B484FF0000E3F
:10182000B2EB080C71EB030724BF624639464EEB5E
:101830000E0E4FF0000B0018524149414BEB0B0BC1
:10184000B2EB080C71EB03077BF1000B24BF62467F
:1018500039464EEB0E0E4FF0000B00185241494135
:101860004BEB0B0BB2EB080C71EB03077BF1000B9E
:1018700024BF624639464EEB0E0E51EA020718BFEE
:1018800046F0010616EB0E7655F1000254F1000108
:1018900003D5BDE88901BDE80088BDE88901BDE840
:1018A0000048B619524141EB0101A3F10103704711
:1018B00080807F7E7D7C7B7A79787776767574738D
:1018C000727171706F6E6E6D6C6C6B6A6A6968684C
:1018D000676666656464636362616160605F5F5EE2
:1018E0005E5D5D5C5C5B5B5A5A5959585857575658
:1018F00056555555545453535252525151505050BD
:101900004F4F4F4E4E4D4D4D4C4C4C4B4B4B4A4A0E
:101910004A49494948484847474747464646454552
:10192000454444444443434343424242424141418B
:10193000002B9C4630D477002BD01CB54FEA3707DC
:1019400003B44FF010004FF01001BAF1000F06D0B1
:10195000BCF1000FDCBF40F0080040F008014FF080
:1019600000000FBCBDE810400BF1010BBBF1010FF3
:1019700008BF5FEA170722BF12F1010211F101014E
:101980004FF0004143F1000300F0004043EA000043
:101990007047F9D35708D0E746EA064613F1400FDF
:1019A0004FEA16461FDD13F1200FDFBF16430A462C
:1019B000002120335B42BED0C3F1200746EA064631
:1019C00002FA07F74FEA164646EA0706C3F1200770
:1019D00022FA03F201FA07F721FA03F14FF00003AC
:1019E00042EA0702A7E746EA020646EA06464FEA47
:1019F000164646EA0106BCBF46EA0646360C4FF0DC
:101A000000034FF000024FF0000194E72DE9804CF5
:101A10009A46934670B491E8380007C831EA400C02
:101A200048BF34EA430C03D5FFF7E6FDFFF780FF1C
:101A3000F0BCBDE8008C2DE9804C9A46934670B40A
:101A400091E8380007C810F0804F08BF13F0804FAE
:101A500003D100F005F8FFF76BFFF0BCBDE8008C88
:101A600020F07F4780EA030023F07F4C07EB0C0354
:101A7000A3F57C5300F00040A3F1FE0392F0000FA9
:101A800000F0B38095F0000F00F077802DE9014958
:101A90004FEA11404FEA144621EA004800FB06FCD9
:101AA00024EA064708FB06F607FB08F800FB07F7E1
:101AB00018EB06484CEB164C4FEA124B18EB074854
:101AC0004FEA15464CEB174022EA0B4E0BFB06FC87
:101AD00025EA06470EFB06F607FB0EFE0BFB07F793
:101AE0001EEB064E4CEB164C4FF000061EEB074E5D
:101AF0004CEB174B18EB0B0840F1000018EB0E0BEA
:101B000058EB000840F100008F1A4FF000013CBF75
:101B1000C943661B14BFB5EB040C00213CBFC9438D
:101B2000F61B4FEA17444EEA8E0E27EA04454FEAA9
:101B30001C4704FB07622CEA074C05FB07F70CFB6C
:101B400005F604FB0CFC16EB074642EB174216EBBE
:101B50000C4642EB1C421BEB060658EB02024141CD
:101B600046EA9E0601D5BDE80189B619524141EB0E
:101B70000101A3F10103BDE801894FEA14454FEAD1
:101B8000114724EA054621EA074C05FB07F406FB4A
:101B900007F70CFB06F105FB0CFC11EB074144EBCE
:101BA00017444FEA124711EB0C4144EB1C4422EA64
:101BB000074C05FB07F206FB07F70CFB06F605FBD7
:101BC0000CFC16EB074642EB174216EB0C4642EBB9
:101BD0001C456A1854F1000148BF7047B6195241BC
:101BE00041EB0101A3F10103704795F0000F37D0DD
:101BF0004FEA11424FEA144721EA024624EA074C11
:101C000002FB07F106FB07F70CFB06F402FB0CFCDA
:101C100014EB074441EB17414FEA154714EB0C4412
:101C200041EB1C4125EA074C02FB07F506FB07F7D1
:101C30000CFB06F602FB0CFC16EB074645EB1745C2
:101C400016EB0C4645EB1C42121951F1000148BF3E
:101C50007047B619524141EB0101A3F101037047EE
:101C60004FEA14454FEA114724EA054621EA074C9A
:101C700005FB07F106FB07F70CFB06F24FF0000629
:101C800005FB0CFC12EB074241EB174112EB0C4237
:101C900051EB1C4148BF7047921841EB0101A3F181
:101CA0000103704722484FF6FF710170002080F356
:101CB00009882048016881F308881F484FF0805147
:101CC000016062B6FEE71C484FF08051016070472A
:101CD00019484FF080510160704772B6EFF30980E8
:101CE00050B11EF0100F08BF20ED108A203880E898
:101CF000F00F12490968086000B5114880475DF887
:101D000004EB104810490A7802700C480F490A6821
:101D10000260106890E8F00F20301EF0100F08BF2E
:101D2000B0EC108A80F309884EF0040E62B670475A
:101D300022ED00E04410002004ED00E03C10002003
:101D4000CD570008B20F0020B30F00204010002034
:101D5000816841F08041816070471FB5684605F099
:101D600061FE019804B010BD00BFFEE710B586B05B
:101D700001AA00212E4800F098FA2E49019831F866
:101D800010002D49097888424FDA2A49019831F824
:101D9000100000EB8000294901EB8000007A9DF8DB
:101DA0000E10884241D12349019831F8100000EB10
:101DB0008000224911F82000B8BB1E49019831F873
:101DC000100000EB80001D4901EB8000007C012821
:101DD0002BD11849019831F8100000EB8000174909
:101DE00001EB8000407C00BB00240FE00DF10F00F0
:101DF000005D104A019932F8111001EB81010F4A80
:101E000002EB810149680855601CC4B29DF80E00C0
:101E1000A042EBDC074A019932F8111001EB810175
:101E2000064A02EB8101C868804706B010BD000079
:101E300000640040A0050020380200203403002088
:101E400010B586B001AA01212E4800F02EFA2E49C5
:101E5000019831F810002D490978884250DA2A4952
:101E6000019831F8100000EB8000294901EB800057
:101E7000007A9DF80E10884242D12349019831F82A
:101E8000100000EB8000224911F82000C0BB1E4961
:101E9000019831F8100000EB80001D4901EB800033
:101EA000007C01282CD11849019831F8100000EB72
:101EB0008000174901EB8000407C012820D10024DC
:101EC0000FE00DF10F00005D0F4A019932F811107B
:101ED00001EB81010E4A02EB810149680855601C43
:101EE000C4B29DF80E00A042EBDC074A019932F81B
:101EF000111001EB8101064A02EB8101C86880479D
:101F000006B010BD00640040A0050020380200208B
:101F10003403002010B586B001AA0021124800F059
:101F2000C4F900240FE00DF10F00005D0F4A019984
:101F300032F8111001EB81010D4A02EB8101496871
:101F40000855601CC4B29DF80E00A042EBDC074AA5
:101F5000019932F8111001EB8101054A02EB810170
:101F6000C868804706B010BD00680040A00500208A
:101F70003403002010B586B001AA0121124800F0F8
:101F800094F900240FE00DF10F00005D0F4A019954
:101F900032F8111001EB81010D4A02EB8101496811
:101FA0000855601CC4B29DF80E00A042EBDC074A45
:101FB000019932F8111001EB8101054A02EB810110
:101FC000C868804706B010BD00680040A00500202A
:101FD000340300200EB50121480605F0F3FC174834
:101FE00000F030F80121880605F0ECFC144800F000
:101FF00029F800208DF806008DF807008DF80800FC
:102000008DF809008DF80A0001208DF80B000020E2
:102010008DF8020001208DF8030002208DF80400E5
:102020008DF805000620ADF800006946034800F071
:10203000B2F86946024800F0AEF80EBD00640040F8
:102040000068004010B504460B48844209D10121C4
:10205000480605F0C7FC00214FF0007005F0C2FCF7
:1020600008E00121880605F0BDFC00214FF08060EA
:1020700005F0B8FC10BD00000064004010B5002160
:10208000837A012202FA03F13D4A126842F001020A
:102090003B4B1A603A4A1C3212688A43384B1C3355
:1020A0001A60027BCAB9364A0C3212688A43344B32
:1020B0000C331A604288C38842EA0343304A4032F4
:1020C000847A42F834300288838842EA03432C4AF7
:1020D0004032847A02EBC4025360027B012A19D198
:1020E000274A0C3212680A43254B0C331A60428887
:1020F000038842EA0343224A4032847A42F8343069
:10210000C288838842EA03431D4A4032847A02EB44
:10211000C4025360C27A3AB9194A121D12688A433E
:10212000174B1B1D1A6006E0154A121D12680A4360
:10213000134B1B1D1A60028932B9114A14321268FE
:102140008A430F4B14331A600289012A06D10C4AC4
:10215000143212680A430A4B14331A60427B012A74
:1021600006D1074A1C3212680A43054B1C331A6019
:10217000034A126822F00102014B1A6010BD0000F0
:10218000006600401AB143690B43436102E04369B2
:102190008B434361704730B502460020002314682A
:1021A00024F002041460146844F00104146000E098
:1021B0005B1C546804F001041CB94FF6FF74A34281
:1021C000F6D1546804F001040CB900206CE08C795D
:1021D000012C04D1146844F08004146003E01468F6
:1021E00024F080041460CC79012C04D1146844F0EC
:1021F0004004146003E0146824F0400414600C7A76
:10220000012C04D1146844F02004146003E0146825
:1022100024F0200414604C7A012C04D1146844F09A
:102220001004146003E0146824F0100414608C7A25
:10223000012C04D1146844F00804146003E014680D
:1022400024F008041460CC7A012C04D1146844F002
:102250000404146003E0146824F0040414608C780F
:10226000A407CD7844EA05640D7944EA05444D7924
:1022700044EA05540D886D1E2C43D461146824F083
:1022800001041460002300E05B1C546804F00104A6
:102290001CB14FF6FF74A342F6D1546804F0010458
:1022A0000CB1002000E0012030BD10B500F5D8735E
:1022B00003EB01131B6803F004031372137A53B981
:1022C00000F5D87303EB01131B6840F2FF7404EAB6
:1022D0005353136009E000F5D87303EB01131B6837
:1022E0006FF0604404EAD303536000F5D87303EB46
:1022F00001131B6803F00203537200F5D87303EB5C
:1023000001135B6803F00F03937200F5D87303EBBE
:1023100001135B681B0AD37400F5D87303EB011338
:102320009B68D37200F5D87303EB01139B681C0AFA
:10233000147300F5D87303EB01139B681C0C5473E2
:1023400000F5D87303EB01139B681B0E937300F524
:10235000D87303EB0113DB68D37300F5D87303EB79
:102360000113DB681C0A147400F5D87303EB011326
:10237000DB681C0C547400F5D87303EB0113DB68A5
:102380001B0E937421B9C36843F02003C36003E0BC
:10239000036943F02003036110BD00000B49096885
:1023A00041F00101094A11601146096843F60E72B5
:1023B0009143064A11601146096841EA0021116003
:1023C0001146096821F00101116070470066004064
:1023D00010B502460020936803F08063B3F1806F6C
:1023E00000D110E0936803F00063B3F1006F01D1F6
:1023F000012008E0936803F08053B3F1805F01D1BE
:10240000022000E00420042874D002F5C07303EB1E
:1024100000131B6803F0010402F5C07303EB001303
:102420001C600B7A7BB94B7A0C8843EA445302F563
:10243000C07404EB00142468234302F5C07404EB59
:102440000014236010E00B7A4C6843EAC4034C7A12
:10245000234302F5C07404EB00142468234302F5FF
:10246000C07404EB001423608B7A03F00F038B72AB
:1024700002F5C07303EB00135B6823F00F0402F551
:10248000C07303EB00135C6002F5C07303EB001331
:102490005B688C7A234302F5C07404EB001463601C
:1024A0008B7B1C064B7B44EA03440B7B44EA0323EF
:1024B000CC7A234302F5C07404EB0014A3608B7C38
:1024C0001C064B7C44EA03440B7C44EA0323CC7B8C
:1024D000234302F5C07404EB0014E36002F5C073FB
:1024E00003EB00131B6843F0010402F5C07303EB18
:1024F00000131C6010BD10B501F09AFB00F074FAD7
:1025000000F01EFAFFF766FD00F056F800F052FAF0
:1025100010BD10B500F020F800F01AF810BD000052
:1025200010B5002400BF00BFFDF718FF044600BF30
:1025300000BF1021054801F06DFE00BF00BF20461E
:10254000FDF710FF00BF00BF10BD000060DF0120DD
:1025500010B5FFF7E5FF10BD10B500200249086077
:1025600000F00AF810BD00006C0F0020014908605F
:10257000704700006C0F002010B5FFF7EEFB04461B
:102580000848006840F0807006490860002006494D
:1025900048600846006840F0010008602046FFF7E8
:1025A000E5FF10BDFCED00E0001000E001494868C7
:1025B00070470000001000E02DE9F047F4B000245F
:1025C000A1464FF00F0A002500260027A0467021E3
:1025D00058A8FEF773F870213CA8FEF76FF8702139
:1025E00020A8FEF76BF8702104A8FEF767F80F200B
:1025F000FFF7D4FE00BF62E004EB8400CE4911F87F
:102600002000002859D104EB840001EB8000007CFD
:10261000012824D104EB840001EB8000407C70B9D8
:1026200004EB840001EB800040884FF6FF7101EA63
:10263000401058A921F81500681C45B23DE004EB94
:102640008400BD4901EB800040884FF6FF7101EA2C
:1026500040103CA921F81600701C46B22DE004EB96
:102660008400B54901EB8000007C022825D104EBF1
:10267000840001EB8000407C70B904EB840001EB26
:10268000800040884FF6FF7101EA401020A921F830
:102690001700781C47B210E004EB8400A64901EB58
:1026A000800040884FF6FF7101EA401004A921F82C
:1026B000180008F101004FFA80F8601C44B29F48EE
:1026C0000078844298DB002409E0681E58A931F89C
:1026D0001000291958AA22F81100601C44B2681E83
:1026E000C11700EB91718910A0EB8101C1F10301C9
:1026F000A142EADC002409E0701E3CA931F8100078
:1027000031193CAA22F81100601C44B2701EC11796
:1027100000EB91718910A0EB8101C1F10301A1428D
:10272000EADC002409E0781E20A931F810003919EC
:1027300020AA22F81100601C44B2781EC11700EBD9
:1027400091718910A0EB8101C1F10301A142EADC82
:1027500000240BE0A8F1010004A931F8100008EBF7
:10276000040104AA22F81100601C44B2A8F101007F
:10277000C11700EB91718910A0EB8101C1F1030138
:10278000A142E7DC01208DF80B0000208DF80C0041
:1027900001208DF80D00002D30DD002427E009F028
:1027A000FF008DF80A0009F101004FFA80F9A0003E
:1027B00058A931F81000ADF80000A000401C31F815
:1027C0001000ADF80200A000801C31F81000ADF838
:1027D0000400A000C01C31F81000ADF80600002075
:1027E000ADF808006846FFF749FC601C44B2681E5B
:1027F000C11700EB9171B4EBA10FD0DD002E30DDDD
:10280000002427E009F0FF008DF80A0009F101001B
:102810004FFA80F9A0003CA931F81000ADF8000093
:10282000A000401C31F81000ADF80200A000801C90
:1028300031F81000ADF80400A000C01C31F8100001
:10284000ADF806000120ADF808006846FFF716FC59
:10285000601C44B2701EC11700EB9171B4EBA10F64
:10286000D0DD002F30DD002427E00AF0FF008DF8D6
:102870000A000AF101004FFA80FAA00020A931F8FD
:102880001000ADF80000A000401C31F81000ADF8B9
:102890000200A000801C31F81000ADF80400A00078
:1028A000C01C31F81000ADF806000020ADF808009B
:1028B0006846FFF7E3FB601C44B2781EC11700EBCB
:1028C0009171B4EBA10FD0DDB8F1000F31DD002420
:1028D00027E00AF0FF008DF80A000AF101004FFA24
:1028E00080FAA00004A931F81000ADF80000A000A3
:1028F000401C31F81000ADF80200A000801C31F837
:102900001000ADF80400A000C01C31F81000ADF8B4
:1029100006000120ADF808006846FFF7AFFB601C19
:1029200044B2A8F10100C11700EB9171B4EBA10F03
:10293000CFDD74B0BDE8F0873403002038020020FA
:102940001CB50121022005F02DF8092208211848A4
:1029500000F0E4FD09221146154800F0DFFD4FF4B8
:102960004070009002208DF804008DF805000020D2
:102970008DF8060069460E4800F088FD09220C21FA
:102980000B4800F0CBFD09220D21094800F0C6FDDF
:102990004FF44050009002208DF804008DF805009F
:1029A00000208DF806006946014800F06FFD1CBD4F
:1029B0000004024010B5012202210948FFF7E2FBA2
:1029C000012210210648FFF7DDFB01220221054804
:1029D000FFF7D8FB012210210248FFF7D3FB10BDFF
:1029E000006400400068004008B501208DF8030035
:1029F0008DF8010000208DF8020014208DF80000F1
:102A0000684601F03BFC01208DF801008DF80200C2
:102A100015208DF80000684601F030FC01208DF88B
:102A2000010002208DF8020040208DF80000684669
:102A300001F024FC01208DF8010003208DF8020034
:102A400041208DF80000684601F018FC08BD000028
:102A500070B505460C46012C03D12946044807F001
:102A6000F4FD022C03D12946024807F0EEFD70BDAB
:102A7000006400400068004010B500200449087060
:102A8000022004490870002007F02AFD10BD000054
:102A9000650200206402002070B5044605E0164877
:102AA000056805F0450000B100E0F8E700BF04202C
:102AB00005F032F820B1042005F028F8032070BD9D
:102AC000012005F029F820B1012005F01FF80120B0
:102AD000F5E7094824380068A04201D01020EEE74D
:102AE00040F2FF5005F012F8034820380068082132
:102AF0000840C0B2E3E70000342C014070B535490E
:102B0000354800F0C3F8012863D1002434E033488D
:102B100030F814003249334A127801EBC20121F82F
:102B200014003148065D06EB8600304901EB800554
:102B30002C480078052805D1284830F81400288250
:102B4000E88117E0274800787B2813DAE8892349D1
:102B500031F81410884203DA204830F81400E88174
:102B6000288A1E4931F81410884203DD1B4830F8CA
:102B700014002882601CC4B2042CC8DB19480078F9
:102B8000401C80281CDB00201649087000260EE03F
:102B900006EB8600154901EB8005E9892A8A881829
:102BA00000EBD071C1F34F016982701CC6B2042ED4
:102BB000EEDB07F08DF907F01FF807F0B7F904E036
:102BC00008480078401C074908700249024800F094
:102BD00037F870BD2080001010640240F201002020
:102BE000582F0020FA010020FB0100209C0100204A
:102BF00010B50649064800F049F8012805D10549F5
:102C000008700249024800F01BF810BD008800203F
:102C1000886402406000002010B50749074800F0B2
:102C200035F8012807D10449044800F009F80021CB
:102C3000024800F01FF810BD00800028B864024070
:102C40000246094B9A4201D2084801E00648103872
:102C500001F000531BB1064B0B40C36002E0044B74
:102C60000B40836070470000106402400060024027
:102C70007D0F7D0F21B1026842F00102026003E086
:102C8000026822F0010202607047000070B502463F
:102C9000002000240025124EB24201D2114B01E067
:102CA0000F4B103B104E0E4036B11E2606EAD124C3
:102CB000166806EA040502E0566906F0800501F090
:102CC00000560EB15C6800E01C68084E344004EA0F
:102CD000010616B10DB1012000E0002070BD00001A
:102CE00010640240006002403C0F3C0F7D0F7D0FDE
:102CF00010B501F080034BB122B1436943F080036A
:102D0000436103E0436923F08003436180290BD0D2
:102D10002AB1036801F01E042343036004E0036842
:102D200001F01E04A343036010BD000010B5002293
:102D30000268134B1A40CC680B6823434C69234349
:102D40008C692343CC6923430C6A23434C6A234395
:102D50008C6A23434C6B23438C6B23431A430260DE
:102D6000426922F00702D1E90B3423431A4342613E
:102D70000B6943604B6883608B68C36010BD0000C3
:102D80003F801CF04160704710B54278837842EA7A
:102D90000322C37842EA034203791B4C2468C4EB44
:102DA00003631A43194B1A604278837842EA03227C
:102DB000C37842EA0342037942EA0362124B1A6083
:102DC0004279837942EA0322C37942EA0342037AD1
:102DD0000F4C2468C4EB03631A430E4B1A6042790C
:102DE000837942EA0322C37942EA0342037A42EA40
:102DF0000362074B1A60084A12680AB9012200E010
:102E00000022054B1A6010BD8C00002094000020A9
:102E10009000002098000020940244427047000077
:102E200010B5042000F0F2F8012807D10A2007F0BD
:102E3000B1FC03480068042000F0E2F810BD000077
:102E40000802424210B5082000F0E0F8012810D135
:102E50000A2007F09FFC0748006838B90648006858
:102E600008B9012000E0002003490860082000F0B4
:102E7000C7F810BD0C0242429402444210B5102023
:102E800000F0C4F8012810D10A2007F083FC07489D
:102E9000006838B90648006808B9012000E0002041
:102EA00003490860102000F0ABF810BD1002424248
:102EB0009802444210B5202000F0A8F8012810D153
:102EC0000A2007F067FC1448006838B91348006806
:102ED00008B9012000E0002010490860202000F01F
:102EE0008FF8802000F092F8012813D10A2007F013
:102EF00051FC0A487438006848B90848083000682E
:102F000008B9012000E00020044908310860802051
:102F100000F076F810BD00001402424290024442D4
:102F20000EB500F0EDFF0121880304F06BFD0221D6
:102F3000042004F0C3FE0321042004F0BFFE04219A
:102F4000084604F0BBFE0521042004F0B7FE07216B
:102F5000082004F0B3FE3C20009000208DF804000F
:102F60000C208DF8050001208DF80600684600F061
:102F700059F880200090684600F054F8BC2000F01A
:102F80003FF84FF4A06001F0B5F908208DF8080073
:102F900003208DF8090000208DF80A0001208DF82B
:102FA0000B0002A801F06AF909208DF8080003203F
:102FB0008DF8090001208DF80A008DF80B0002A899
:102FC00001F05CF90A208DF8080003208DF8090053
:102FD00002208DF80A0001208DF80B0002A801F0F4
:102FE0004DF917208DF8080003208DF809008DF8A1
:102FF0000A0001208DF80B0002A801F03FF90EBD78
:103000000149086070470000143C0140014600205F
:10301000034A12680A400AB1012000E0002070470C
:10302000143C0140002123498279002A3AD00A4603
:10303000126803689A430B461A600A1D12680368F7
:103040009A430B1D1A60027911440A6803681A43F7
:103050000A60184A0832126803689A43154B08330D
:103060001A601A1D126803689A43124B0C331A60D7
:103070004279102A0ED11A1F126803681A430D4BA9
:1030800008331A601A1D126803681A43094B0C337F
:103090001A600DE00749427911440A6803681A432F
:1030A0000A6005E0027911440A6803689A430A60DD
:1030B00070470000003C01407FB5002600254FF618
:1030C000FF7000F093FFB3A018210B464FF49672E7
:1030D000CDE900104FF4A571002001F04CF8AEA02E
:1030E00018210B464FF49672CDE9001006210020FE
:1030F00001F041F8B1A018210B464FF49672CDE9CA
:1031000000102A21002001F036F81AE0B2480078B9
:1031100038B10020B0490870B04804780B2C00D0BA
:10312000012575B10025052C09D0122C08D10126E6
:103130000420AB490870002007F0D2F900E07FBD01
:1031400000BF002EE2D000260A2007F023FB4FF636
:10315000FF7000F04BFFA3A018210B464FF49672AE
:10316000CDE900100621002001F005F8A0A01821EB
:103170000B464FF49672CDE900102A21002000F092
:10318000FAFF37E09E4890ED000B8DED020B9DA0FD
:1031900018210B464FF49672CDE900104E21002005
:1031A00000F0E9FF964890ED0A0B8DED020B9AA016
:1031B00018210B464FF49672CDE900104E210020E5
:1031C00000F0D9FF8448007838B1002082490870A7
:1031D000824804780B2C00D001255DB10025052C18
:1031E00006D0122C05D10126002007F079F900E065
:1031F000A5E700BF002EC5D000260A2007F0CAFAB6
:103200004FF6FF7000F0F2FE88A018210B464FF435
:103210009672CDE900104FF4A571002000F0ABFFCD
:103220005DA018210B464FF49672CDE900100621DF
:10323000002000F0A0FF61A018210B464FF4967209
:10324000CDE900102A21002000F095FF17E0624828
:10325000007838B1002060490870604804780B2C71
:1032600000D001255DB10025052C06D0122C05D11A
:103270000126002007F034F900E060E700BF002ECF
:10328000E5D000260A2007F085FA4FF6FF7000F01F
:10329000ADFE67A018210B464FF49672CDE90010E1
:1032A0000621002000F067FF51A018210B464FF4C3
:1032B0009672CDE900102A21002000F05CFF37E073
:1032C0004F4890ED000B8DED020B4EA018210B46E0
:1032D0004FF49672CDE900104E21002000F04BFF14
:1032E000474890ED0A0B8DED020B4BA018210B46C1
:1032F0004FF49672CDE900104E21002000F03BFF04
:103300003548007838B100203349087033480478D4
:103310000B2C00D001255DB10025052C06D0122C08
:1033200005D10126002007F0DBF800E007E700BF29
:10333000002EC5D00A2007F02DFA4FF6FF7000F0DE
:1033400055FE3EA018210B464FF49672CDE90010B1
:103350004E21002000F00FFF40A018210B464FF433
:103360009672CDE900104E21002000F004FF0FE01E
:103370001948007838B100201749087017480478B8
:103380000B2C00D001251DB10025052C00D1D6E65F
:10339000EEE70000582B000046696E642061207241
:1033A000656672656E6365206C696E6520616E642A
:1033B000207072657373204F4B000000746F206D96
:1033C00061726B2074686520737461727420706F11
:1033D000736974696F6E0000600000208000002037
:1033E00064020020582B3A5075736820336D00003A
:1033F0005072657373204F4B20746F20656E6400AC
:1034000018F60120456E636F6465725B305D2E6453
:1034100069733A256C660000456E636F6465725B84
:10342000315D2E6469733A256C660000592B0000EB
:10343000592B3A5075736820336D000050726573D4
:103440007320616E79206B657920746F20636F6ED5
:1034500074696E75652E2E2E00000000496E766F21
:103460006B6520456E636F6465725F566965772092
:10347000746F20636865636B0000000070B5002402
:1034800000254FF6FF7000F0B1FD70BDF0B50A46A3
:1034900000210023002400BF3DE0012505FA01F3CF
:1034A000156805EA03049C4234D105684F000326E1
:1034B000BE40B543056015794E00B54006683543FA
:1034C00005601579012D02D01579022D16D1856878
:1034D0004F000326BE40B543856055794E00B54088
:1034E000866835438560456801268E40B543456052
:1034F000456896798E40B6B235434560C5684F0041
:103500000326BE40B543C560D5794E00B540C668B8
:103510003543C560491C1029BFD3F0BDF0B5002369
:1035200000244D07ED0E02FA05F3CE1000F1200540
:1035300055F826504E07F70E0F26BE40B543CF1064
:1035400000F1200646F82750CE1000F1200555F86E
:10355000265045EA0304CE1000F1200545F8264028
:10356000F0BD00000348D0F804050078062800D01C
:1035700000BF70473403002001460E2901DDFF2003
:103580007047022901DB072903DD0C2903DB0E2923
:1035900001DC0120F4E70220F2E70146022901DC08
:1035A00001207047052901DC0220FAE70B2901DC24
:1035B0000320F6E70E2901DC0920F2E7FF20F0E7FF
:1035C00001460F2926D2DFE801F025080A0D0F1168
:1035D000131517191B1D1F212300104870474FF0AA
:1035E0008040FBE70E48F9E70E48F7E70E48F5E79D
:1035F0000E48F3E70E48F1E70E48EFE70E48EDE717
:103600000E48EBE70E48E9E70E48E7E70E48E5E726
:103610000E48E3E700BF00BF0020DFE700000140E5
:103620000004004000080040000C00400010004072
:1036300000140040000401400040014000440140EB
:103640000048014000180040001C004000200040DD
:103650000146012901DC01207047072904DC881E8E
:10366000012202FA00F0F7E7082901DC0220F3E763
:103670000B2904DCC81D012202FA00F0ECE70E2938
:1036800004DC881F012202FA00F0E5E7FF20E3E7EF
:1036900070B5054605EB85000A49096801EB800015
:1036A000A0F114042079022803D10649206908609A
:1036B00006E02079012802D1A068804700E000BF21
:1036C00070BD0000700D00207CB5002600254FF66F
:1036D000FF7000F08BFC37A018210B464FF4967258
:1036E000CDE900100621002000F045FD36A018218C
:1036F0000B464FF49672CDE900104E21002000F0E9
:103700003AFD37A018210B464FF49672CDE9001010
:103710007221002000F02FFDFFF7AEF90FE03348D3
:10372000007838B1002031490870314804780B2CFA
:1037300000D001251DB10025052C00D17CBD2D48F0
:1037400000780028EBD04FF6FF7000F04FFC2948BE
:103750000078072802D0082818D10BE026A01821ED
:103760000B464FF49672CDE900104E21002000F078
:1037700002FD0BE026A018210B464FF49672CDE90E
:1037800000104E21002000F0F6FC00BF00BF0FE04B
:103790001648007838B1002014490870144804789D
:1037A0000B2C00D001251DB10025052C00D1C5E74B
:1037B000EEE700003D3D436865636B20466C6F613A
:1037C000747E3D3D00000000446F6E2774206D6FD5
:1037D00076652074686520726F626F740000000067
:1037E0002020202121212121000000006000002054
:1037F00080000020650200205A65726F20466C6FC1
:103800006174204368616E676564212100000000D7
:103810004779726F20496E6974204572726F722108
:10382000210000007FB5002500264FF6FF7000F054
:10383000DDFBB6A018210B464FF49672CDE90010BF
:103840000621002000F097FC1AE0B648007838B155
:103850000020B4490870B44804780B2C00D001262D
:1038600076B10026052C09D0122C08D101250320A1
:10387000AE490870002006F033FE00E07FBD00BFB7
:10388000002DE2D000250A2006F084FF4FF6FF70DD
:1038900000F0ACFBA6A018210B464FF49672CDE9C0
:1038A00000100621002000F066FCA6A018210B469F
:1038B0004FF49672CDE900102A21002000F05BFC45
:1038C00011E09848007838B1002096490870964871
:1038D00004780B2C00D001262EB10026122C01D129
:1038E000012500BF00BF002DEBD000250A2006F007
:1038F00051FF4FF6FF7000F079FB9AA018210B469C
:103900004FF49672CDE900100621002000F033FC40
:1039100098A018210B464FF49672CDE900102A2189
:10392000002000F028FC11E07E48007838B100202B
:103930007C4908707C4804780B2C00D001262EB1FD
:103940000026122C01D1012500BF00BF002DEBD0B5
:1039500000250A2006F01EFF4FF6FF7000F046FB20
:1039600089A018210B464FF49672CDE900102A2148
:10397000002000F000FC89A018210B464FF496723D
:10398000CDE900104E21002000F0F5FB8B4890EDB2
:10399000020B8DED020B8AA018210B464FF4967294
:1039A000CDE900100621002000F0E5FB11E05D48A4
:1039B000007838B100205B4908705B4804780B2C14
:1039C00000D001262EB10026122C01D1012500BF06
:1039D00000BF002DEBD000250A2006F0DBFE4FF6DD
:1039E000FF7000F003FB5FA018210B464FF49672A6
:1039F000CDE900100621002000F0BDFB5DA01821DC
:103A00000B464FF49672CDE900102A21002000F0F9
:103A1000B2FB11E04348007838B1002041490870FA
:103A2000414804780B2C00D001262EB10026122C20
:103A300001D1012500BF00BF002DEBD000250A20D9
:103A400006F0A8FE4FF6FF7000F0D0FA5FA0182134
:103A50000B464FF49672CDE900100621002000F0CD
:103A60008AFB14E02F48007838B100202D490870F7
:103A70002D4804780B2C00D0012646B10026122CCC
:103A800004D1002006F02CFD012500BF00BF002D51
:103A9000E8D000250A2006F07DFE4FF6FF7000F00A
:103AA000A5FA464890ED020B8DED020B44A01821BB
:103AB0000B464FF49672CDE900100621002000F06D
:103AC0005AFB3E4890ED040B8DED020B4BA01821E4
:103AD0000B464FF49672CDE900102A21002000F029
:103AE0004AFB49A018210B464FF49672CDE900100D
:103AF0002A21002000F03FFB06E00A48007818B1B8
:103B0000002008490870B9E6F7E7000046696E64CE
:103B100020612072656672656E636520626F7264F3
:103B20006572000060000020800000206402002018
:103B30005072657373204F4B20746F2073746172E1
:103B4000740000005374617274207475726E696E33
:103B500067206D65202B313020636972636C65735B
:103B60000000000049276D207475726E696E672130
:103B7000212100005072657373204F4B20746F2019
:103B800073746F70000000005072657373204F6B88
:103B900020746F207374617274202E0053746172EC
:103BA00074207475726E696E67206D65202D3130DA
:103BB00020636972636C657300000000E8F5012002
:103BC000436F6E313A256C66000000004261636B02
:103BD00020746F207468652072656672656E636517
:103BE00020626F7264657220616E6420707265730A
:103BF00073204F4B20746F20656E6400436F6E32EC
:103C00003A256C6600000000507265737320616E87
:103C100079206B657920746F20636F6E74696E759F
:103C2000652E2E2E00000000704700BFFEE700004A
:103C30001F210F4A1170002005E040F2E7310D4AC4
:103C400022F81010401CB0F57A7FF6DB002009E066
:103C500000EB8002084B03EB82025288054B23F8ED
:103C60001200401C024909788842F1DB70470000CD
:103C700038020020A0050020340300202DE9F04F79
:103C800089B0054689464FF0000B934890F800A094
:103C9000142104A8FCF712FD20208DF81000012447
:103CA00001208D49087004F055F9182003464FF49F
:103CB00096720621CDE90009002000F029FA87A1BB
:103CC000182228681346CDE9002102904FF496721D
:103CD0002A21002000F04FFA04A882A118221346DE
:103CE000CDE9002102904FF496724E21002000F0A1
:103CF00042FA00BF7D48007840B100207B4908703F
:103D00007B4806780B2E01D04FF0010BBBF1000F62
:103D100073D04FF0000B142E12D2DFE806F0BD0A6C
:103D2000121A228CBD2A323A42BDBD4A52BD5A6691
:103D30006F900E2C04DA31222046641C04A90A5428
:103D4000AAE00E2C04DA32222046641C04A90A548C
:103D5000A2E00E2C04DA33222046641C04A90A5483
:103D60009AE00E2C04DA34222046641C04A90A547A
:103D700092E00E2C04DA35222046641C04A90A5471
:103D80008AE00E2C04DA36222046641C04A90A5468
:103D900082E00E2C04DA37222046641C04A90A545F
:103DA0007AE00E2C04DA38222046641C04A90A5456
:103DB00072E00E2C04DA39222046641C04A90A544D
:103DC0006AE00E2C04DA30222046641C04A90A544E
:103DD00062E09DF81000202803D12D208DF81000FE
:103DE00002E020208DF8100056E0012C04DD0021B7
:103DF000601E044604AA11544EE068E000274FF00C
:103E000001080AE004A810F8080007EB870100EB9E
:103E10004100A0F1300708F10108A045F2DB9DF850
:103E200010002D2800D17F422F602B4880F800A081
:103E300009B0BDE8F08F284880F800A0F8E72648D0
:103E4000007808B9012000E000202349087004F040
:103E500081F8182003464FF496720621CDE9000937
:103E6000002000F055F91DA1182228681346CDE95D
:103E7000002102904FF496722A21002000F07BF975
:103E80001CA018210B464FF49672CDE900104E216C
:103E9000002000F070F900BF00BF4FF6FF700090E7
:103EA00016480088401E82B266234E21302000F062
:103EB000B4F804A80CA118221346CDE90021029001
:103EC0004FF496724E21302000F055F912E7012090
:103ED00006F060FC0EE70000540F00206F6C643A9F
:103EE000256400006E65773A2573000060000020AD
:103EF000800000206E65773A00000000F62D00205B
:103F00001CB501214FF4887003F04CFD3C2000905B
:103F100000208DF8040002208DF8050001208DF8A6
:103F2000070069460448FFF7B1FA8020009069460F
:103F30000248FFF7ABFA1CBD00100240002002400F
:103F400010B50446142C45D2DFE804F0440A0E12E2
:103F5000161A4425292D31444435444444444439F7
:103F60000120FFF795FB36E00220FFF791FB32E0DE
:103F70000320FFF78DFB2EE00420FFF789FB2AE0EA
:103F8000174800681749884204D015480068C0687F
:103F9000134908601FE00520FFF77AFB1BE00620AD
:103FA000FFF776FB17E00720FFF772FB13E008200E
:103FB000FFF76EFB0FE00920FFF76AFB0BE00A48F2
:103FC000007808B9012000E000200749087003F0DC
:103FD000C1FF00BF00BF00BF04F078FA10BD0000B1
:103FE000700D0020740D0020540F00200146FF22A8
:103FF000074B1A70FE2283F85321012004E020228F
:10400000034B1A54421C90B2B0F5A97FF7DD7047FC
:10401000042E002070477047704710B5029C10BDF9
:1040200000B54FF6FF70FFF7E1FF00BD10B5024687
:10403000012000E050430B1EA1F10104E1B2F9D1CF
:1040400010BD7047F0B5059CB0F5967F02DCB1F568
:10405000D87F00DDF0BD0C2590FBF5F5242691FB03
:10406000F6F606EB860707EBC60605EB46056D1C64
:10407000014E725500BFEDE7042E00202DE9FF4FE1
:1040800081B0074691461E460E9D4FF0000A00245F
:1040900039E0301B401EC1B20A20FFF7C7FFB9FB51
:1040A000F0F00A21B0FBF1F201FB1208BAF1000FA7
:1040B00016D1701EA04213DDB8F1000F0ED1002002
:1040C000AB4605EBDB71491001FB0471009088B22F
:1040D0002B4620220299FFF7B5FF12E04FF0010AAC
:1040E0000020AB4605EBDB71491001FB0471009029
:1040F00088B208F13001CAB22B460299FFF7A2FF3D
:1041000000BF601CC4B2B442C3DB05B0BDE8F08F91
:104110002DE9F84704460D4690469946DDE90967C2
:1041200004F0FF0A08EB04001FFA80F809EB050011
:104130001FFA80F916E0444502DB5446A81985B2FF
:104140004D4500DB14E0002000903A7833462946C4
:104150002046FFF777FF304606EBD07104EB610194
:104160008CB27F1C38787E2802DC38782028E2DA8E
:1041700000BFBDE8F8872DE9F041A4B004460D4624
:1041800016461F46DDF8A8802CA8239003A8239A82
:104190002B99FCF7F9F80020239003A83B46324600
:1041A0002946CDE900802046FFF7B2FF24B0BDE8E4
:1041B000F08100001CB50121080203F0F3FB702020
:1041C000009001208DF8040000208DF806000220E8
:1041D0008DF8050001208DF8070069460548FFF7B6
:1041E00055F9012004490860091F0860091F08608B
:1041F0001CBD0000002002409802444200200349F8
:104200000860091F0860091F08607047980244424F
:1042100000BFFEE730B505460C4622460021284681
:1042200000F001F830BD2DE9F04105460B469446FB
:104230000027002402E03F021F43641C042CFAD331
:10424000604605F00306294646B1344603E001F80E
:10425000013B401E641C08B1042CF8D30A4601E05F
:1042600080C2001F0428FBD2114602E001F8013B86
:10427000401E0028FAD1BDE8F081704770B50021DA
:1042800000230F22C4781CB3174C246804F4E064A4
:10429000C4F5E064C4F30721C1F10404E3B20A41A8
:1042A00044789C40E1B28478144021430C07210EED
:1042B0000E4C05786155047804F01F050124AC40CC
:1042C00005786D11AD0005F1E025C5F8004109E064
:1042D000047804F01F050124AC40054D06787611E2
:1042E00045F8264070BD00000CED00E000E400E061
:1042F00080E100E002490143024A1160704700007A
:104300000000FA050CED00E07047000010B503480E
:10431000006810B101480068804710BD840F00207C
:1043200070B5044600F0BCF80020454908704549C6
:104330000870454908704549086045490860454985
:104340000870454908704549087045490860454965
:1043500008604549086045490870454800680A21D9
:10436000B0FBF1F0434908604348006858B1434846
:10437000056845B14048066803E0761E00202860C5
:104380002D1D002EF9D100203D4908603D490860EF
:104390003D4908603D4908603D4908603D49086065
:1043A0003D4908603D49087001F06AFE01F0A4FE35
:1043B000204601F0B7FB208800B170BD204601F017
:1043C00017FC208800B1F8E7204601F01DFC20888A
:1043D00000B1F2E7204601F097FC208800B1ECE73D
:1043E000204601F07DFE208800B1E6E7204601F07E
:1043F000CDFF208800B1E0E7204602F0FDF92088DB
:1044000000B1DAE7204601F0BBFB208800B1D4E719
:10441000204602F017FE208800B1CEE7204602F0C9
:1044200035F9208800B1C8E7204602F06FFE2088E9
:1044300000B1C2E701F0A2FAFFF766FF00BFBCE7D8
:10444000980F0020990F0020CC0F00203C10002076
:1044500040100020B20F0020B30F0020B40F002046
:10446000C00F0020C40F0020C80F0020D40F002070
:1044700038C10008D00F002008C1000804C100089E
:10448000780F00207C0F0020800F0020840F002078
:10449000880F00208C0F0020900F002002100020B9
:1044A000064800680649096800EB81000549086074
:1044B0000846006820F007000860704704C1000843
:1044C00008C100084410002008480078012800D0E6
:1044D000704707480078FA2800DBF9E704480078BD
:1044E000401C0349087000BFF2E70000990F00204C
:1044F000980F002010B500242D480078012800D026
:1045000010BD00BFFBF72AFF044600BF2948007812
:1045100028B900BF2046FBF725FF00BFF0E725487C
:104520000078401E2349087008460078002805DD01
:1045300000BF2046FBF716FF00BFE1E71E480078EA
:10454000002805DD00BF2046FBF70CFF00BFD7E7C2
:1045500001F082FD194908700846007800EB400020
:10456000174951F8200017490860084600681649A5
:104570000968884205D100BF2046FBF7F3FE00BF63
:10458000BEE710480068D0F88C00401C0D4909684F
:10459000C1F88C000D480068401C0C490860FDF70C
:1045A00097FB00BF2046FBF7DDFE00BF00BFA7E77B
:1045B000990F0020980F0020CC0F0020B30F00208F
:1045C0007CF00120401000203C100020F80F00205B
:1045D0002DE9F04104460E46154600271B48007899
:1045E000002804DD42F6E1602880BDE8F0811CB9B6
:1045F00045F6C3502880F8E700BF00BFFBF7AEFECA
:10460000074600BF00BF124820606660002020629D
:1046100084F82500A062402084F8240004F10800FA
:1046200001F029FC204601F057FB0A480088401C95
:104630000849088000BF00BF3846FBF793FE00BF63
:1046400000BF0020288000BFCFE70000980F0020A7
:104650004D555458B00F00202DE9F04788B005465D
:10466000894690461C46109E4FF0000A8A48007802
:10467000002805DD46F2AE10308008B0BDE8F087B6
:104680001DB945F6C3503080F7E7B8F1000F03D0ED
:10469000B8F5004F02D100E000BF03E045F6256009
:1046A0003080EAE700BF7D492868884203D045F69C
:1046B000C4503080E1E70CB10020206000BF00BF93
:1046C000FBF74CFE824600BF00BF95F82500C0B93D
:1046D0007348006828627248006890F8370085F8CF
:1046E0002400012085F825000CB1A86A206000BFD5
:1046F00000BF5046FBF736FE00BF00BF00203080F1
:10470000BBE76749286A0968884212D195F82500F5
:10471000401C85F825000CB1A86A206000BF00BFCE
:104720005046FBF71FFE00BF00BF45F2827030808D
:10473000A3E708F4004050B100BF00BF5046FBF7AC
:1047400011FE00BF00BF46F2B010308095E755481B
:10475000007800280ADD00BF00BF5046FBF702FECC
:1047600000BF00BF46F66350308086E72F6A97F897
:1047700037004B49096891F8371088423ADD97F8BD
:10478000360008282AD2DFE800F004151E1F17168D
:104790002021384601F038FD4148006890F8370084
:1047A00087F8370097F8370001F076FC384601F0BB
:1047B000CBFC1EE000BF00BF3948006890F837000E
:1047C00087F8370015E000BF00BF00BF344800681D
:1047D00090F83710384601F02BFB0AE000BF00BF0D
:1047E0005046FBF7BFFD00BF00BF46F62D6030808E
:1047F00043E700BF4B4604222946684601F090FA81
:1048000000BF00BF5046FBF7ADFD00BF00BF00F08A
:1048100005F900BF00BFFBF7A1FD824600BF00BF46
:104820001F48006890F8350030B101280CD00228EC
:104830001AD0032821D110E01CB119480068006C7F
:104840002060002030801CE01CB115480068006C1E
:10485000206046F2A910308013E00CB100202060E7
:1048600047F2D92030800CE01CB10D480068006C84
:10487000206045F6C250308003E046F62E6030805E
:1048800000BF00BF00BF00BF5046FBF76BFD00BF7D
:1048900000BF00BFF1E60000980F00204D555458AE
:1048A0003C100020CC0F00202DE9F84F044688462C
:1048B00015464FF0000A55480078002804DD46F2FE
:1048C0000E202880BDE8F88F1CB945F6C35028801B
:1048D000F8E7B8F1000F03D0B8F5004F02D100E0BF
:1048E00000BF03E045F625602880EBE700BF48499C
:1048F0002068884203D045F6C4502880E2E700BF14
:1049000000BFFBF72BFD824600BF00BF4149206A74
:10491000096888420AD000BF00BF5046FBF722FD5D
:1049200000BF00BF45F281702880CBE7FDF73EFE57
:104930000746A76294F82500401E84F8250094F8E5
:10494000250000280ADD00BF00BF5046FBF70AFD26
:1049500000BF00BF45F283702880B3E704F1080967
:10496000B9F8080068B90020206284F8250000BF6B
:1049700000BF5046FBF7F6FC00BF00BF00202880B8
:10498000A0E72448006890F8370094F82410884283
:1049900019D02048006801F037FC94F824001D4924
:1049A000096881F837001B49096891F8370001F060
:1049B00073FB1848006801F0E7FB1648006890F8A0
:1049C000370015490870D9F800008668266296F805
:1049D000370084F82400012084F8250000231A46BB
:1049E00031462046009701F0B7FA00BF00BF50469D
:1049F000FBF7B8FC00BF00BF08F4004008B900F0A6
:104A00000DF80020288000BF5CE70000980F002010
:104A10004D5554583C100020B20F002010B5002412
:104A20001F480078002800DD10BD1E4800780028CF
:104A300000DDF9E700BFFBF791FC044600BF01F081
:104A40000BFB194908700846007800EB4000174935
:104A500051F82000164908600846006815490968A1
:104A6000884205D100BF2046FBF77CFC00BFDBE796
:104A70000F480068D0F88C00401C0D490968C1F847
:104A80008C000D480068401C0B490860FDF71BF9BD
:104A900000BF2046FBF766FC00BF00BFC4E7000074
:104AA000980F0020CC0F0020B30F00207CF00120D5
:104AB000401000203C100020F80F002070B5044684
:104AC000002518480078002803DD46F66250208053
:104AD00070BD15480078012803D045F68960208014
:104AE000F6E712480078FA2803DB45F20920208017
:104AF000EEE700BF00BFFBF731FC054600BF00BF7B
:104B00000A480078401C0949087001F0ABFB00BF5F
:104B100000BF2846FBF726FC00BF00BF0020208016
:104B200000BFD5E7980F0020990F0020CC0F002080
:104B30002DE9F04105460C461646002700BF00BF90
:104B4000FBF70CFC074600BF00BF012D03D000207F
:104B50000D49087002E001200B49087014B10B48A0
:104B6000046006E00A4800680A21B0FBF1F007493A
:104B7000086000BF00BF3846FBF7F4FB00BF00BF72
:104B800000203080BDE8F081D40F0020D00F00203D
:104B900038C1000870B50446002520480078002878
:104BA00003DD46F66550208070BD1D480078012861
:104BB00003D045F689602080F6E71A48007818B9D6
:104BC00046F664502080EFE700BF00BFFBF7C6FB4E
:104BD000054600BF00BF13480078401E1149087009
:104BE0000846007800280ADD00BF00BF2846FBF712
:104BF000B9FB00BF00BF46F663502080D4E701F048
:104C00003FFB00BF00BF2846FBF7ACFB00BF00BF67
:104C1000FFF704FF0020208000BFC5E7980F0020A9
:104C2000990F0020CC0F002010B5044612480078E0
:104C3000E8B901F011FA11490870084600781049E6
:104C400008700E48007800EB40000E4951F8200033
:104C50000D490860084600680C49086001200649B3
:104C60000870FDF71FF843F69920208002E045F612
:104C70008A60208010BD0000990F0020B30F002033
:104C8000B20F00207CF00120401000203C100020DA
:104C90002DE9F04107464FF0000800BF00BFFBF7C9
:104CA0005DFB804600BF00BF00203B4908803B49B8
:104CB00008603B4908603B4908603B4908603B4944
:104CC000088100BF00BF4046FBF74CFB00BF00BFA0
:104CD00000BF00BFFBF742FB804600BF00BF344867
:104CE000046800BF00BF4046FBF73CFB00BF00BFAD
:104CF00021E000BF00BFFBF731FB804600BF00BFD3
:104D000000207434E06320602063A061A082E08210
:104D10006062A062FDF74AFC2062743C04F1600608
:104D20000020B081D4F8B84000BF00BF4046FBF778
:104D300019FB00BF00BF002CDBD100BF00BFFBF799
:104D40000DFB804600BF00BF1A48056800BF00BFCA
:104D50004046FBF707FB00BF00BF12E000BF00BFEB
:104D6000FBF7FCFA804600BF00BF05F120060020DB
:104D7000B081AD6900BF00BF4046FBF7F3FA00BF4A
:104D800000BF002DEAD102F06DF802F065FA0020B4
:104D90003880BDE8F0810000E20F0020F40F002011
:104DA000081000202C100020C40F002070F00120FB
:104DB000FC0F0020B80F0020F8B504460026694615
:104DC000324800F0E7FCBDF8000018B1BDF8000063
:104DD0002080F8BD6A460021022000F03BFDBDF8AE
:104DE000000018B1BDF800002080F2E700BF00BF4E
:104DF000FBF7B4FA064600BF00BF00202449086054
:104E000000BF00BF3046FBF7ADFA00BF00BF002572
:104E10002048006820490968884205D91D48006873
:104E20001D490968B0FBF1F525B91A4800680A2147
:104E3000B0FBF1F56A460021284600F00BFD6946FB
:104E4000124800F0C1F9BDF8000018B1BDF800002B
:104E50002080BEE700BF00BFFBF780FA064600BF18
:104E600000BF00200D490860094800680C4908602F
:104E700001200C49087000BF00BF3046FBF772FAF2
:104E800000BF00BF0020208000BFA2E728F501205E
:104E9000E40F002038C1000820C10008F40F0020F2
:104EA000E80F0020F00F002010B50348006810B193
:104EB00001480068804710BD880F00202DE9FF4F92
:104EC00085B004469046DDE91995159F139E002094
:104ED000029061480078002805DD47F24A102880DA
:104EE00009B0BDE8F08F1CB947F2AD102880F7E794
:104EF000B8F1000F03D147F24F102880F0E71EB938
:104F000046F62F602880EBE754480068874203D2BA
:104F100046F630602880E3E71498B84203D346F69B
:104F200031602880DCE71298402803D346F27320D2
:104F30002880D5E712983F2806D14948844203D0FB
:104F400046F273202880CBE7204601F065FC002064
:104F5000288009F0010088B109F0020070B1B34661
:104F60000020049007E00020CBF800000BF1040BB8
:104F70000498401C04900498B842F4D3149806EBAB
:104F800080000390CDE9007932464046039B0899A2
:104F900000F0D2FA8346C4F828800898E0620698A8
:104FA0002062129884F83700C4F800B00398A0601B
:104FB00017982065179818B92A480068606501E0BD
:104FC00017986065189860606662A763A4F83C90C3
:104FD0004FF0000A08E0002104F1780040F82A10A0
:104FE0000AF1010000F0FF0ABAF1000FF3D004F15A
:104FF0006000169900F068FE204600F039F800BF06
:1050000000BFFBF7ABF9029000BF00BF94F8370078
:1050100001F042F8204601F0B7F8204601F0B2FB5B
:1050200011480088401C1049088010480078012869
:1050300007D000BF00BF0298FBF794F900BF00BF84
:105040004EE700BF00BF0298FBF78CF900BF00BF1E
:10505000FFF7E4FC00BF43E7980F002034C10008CD
:10506000B0EF0120D00F002000100020990F002089
:1050700010B504460348006818B120460149096884
:10508000884710BD780F002070B504460D460026F5
:1050900043480078002803DD47F24E10288070BD99
:1050A0004048844203D147F24C102880F7E77CB98E
:1050B00000BF00BFFBF752F9064600BF00BF3A48E9
:1050C000046800BF00BF3046FBF74CF900BF00BFCB
:1050D00000BF00BFFBF742F9064600BF00BF94F8CF
:1050E000360008282DD2DFE800F004090E10080A67
:1050F0000F11204601F088F82EE02DE000BF204679
:1051000001F084FE28E000BF00BF00BF94F8340027
:10511000082810D2DFE800F004070508090A0B068A
:1051200000BF00BF08E000BF00BF00BF00BF2046B7
:1051300000F0D9FE00E000BF00BF204601F066FE8F
:105140000AE000BF00BF3046FBF70CF900BF00BF0C
:1051500046F62D602880A2E700BF04F1600000F051
:1051600091FD204600F024F8204601F023FB0F4873
:105170000088401E0D490880204601F04DFBFF20AD
:1051800084F8360000BF00BF3046FBF7EBF800BFE5
:1051900000BF00202880FFF741FC00BF7FE7000030
:1051A000980F0020B0EF01203C10002000100020DC
:1051B00010B504460348006818B120460149096843
:1051C000884710BD7C0F002070B504460D460026B0
:1051D00015480078002803DD47F25510288070BD7F
:1051E00000BF00BFFBF7BAF8064600BF00BF1CB106
:1051F0000E48006884420AD100BF00BF3046FBF76A
:10520000B1F800BF00BF47F257102880E7E700BFA2
:1052100000BF3046FBF7A6F800BF00BF2946204676
:1052200001F058FB00BFDAE7980F00203C10002087
:1052300010B504460348006818B1204601490968C2
:10524000884710BD800F00202DE9F04780460E46AC
:1052500014461D464FF000096F480078002805DD10
:1052600046F2AE1028800020BDE8F0871EB1B6F5EA
:10527000004F02D100E000BF04E045F62560288021
:105280000020F1E700BF0CB10020206000BF00BF8C
:10529000FBF764F8814600BF00BF60480068406CBF
:1052A000A8B35E480068406C401E5C4909684864C9
:1052B0005A480068476C1CB158480068006C206070
:1052C000FDF774F955490968096C401A5349096892
:1052D000C1F8A00051480068D0F8A4004F490968FF
:1052E000D1F8A010884207D24C480068D0F8A0003E
:1052F0004A490968C1F8A40000BF00BF4846FBF74F
:1053000031F800BF00BF002028803846ACE7FFE737
:1053100006F4004058B100BF00BF4846FBF722F832
:1053200000BF00BF46F2B010288000209CE73C4838
:10533000007800280BDD00BF00BF4846FBF712F8DD
:1053400000BF00BF46F66350288000208CE743462C
:1053500007220021084600F0E3FC00BF00BF4846DA
:10536000FBF700F800BF00BFFFF758FB00BF00BF0E
:10537000FAF7F4FF814600BF00BF2848006890F8A4
:10538000350020B1012826D0032834D12CE0FCB10F
:1053900022480068006C2060FDF708F91F49096881
:1053A000096C401A1D490968C1F8A0001B48006833
:1053B000D0F8A40019490968D1F8A010884207D292
:1053C00016480068D0F8A00014490968C1F8A40084
:1053D0000020288013E01CB110480068006C206099
:1053E00046F2A91028800AE00CB10020206047F2A4
:1053F000D920288003E046F62E60288000BF00BF39
:1054000006480068476C00BF00BF4846FAF7AAFF8D
:1054100000BF00BF384627E7980F00203C1000204F
:10542000CC0F00202DE9F04106460D4614461DB173
:10543000B5F5004F02D100E000BF05E045F625605C
:1054400020800020BDE8F08100BFFDF7AFF8804666
:10545000234642462946304601F0C8FA07463846F8
:10546000F0E700002DE9F04705460E4617461C46BA
:105470004FF0000A2E480078002804DD47F259104A
:105480002080BDE8F0871EB946F2D5202080F8E7DD
:105490001FB946F2D5202080F3E700BF00BFFAF71E
:1054A0005DFF824600BF00BF0DB92248056828682D
:1054B00068B900BF00BF5046FAF754FF00BF00BFF5
:1054C00000203060386047F252102080D9E795F80C
:1054D0003C0000F0010068B900BF00BF5046FAF779
:1054E00041FF00BF00BF00203060386047F2541019
:1054F0002080C6E700BF00BF5046FAF733FF00BF69
:1055000000BF4FF00008D5F8249003E009F104092A
:1055100008F10108D9F800000028F7D0C6F800808B
:10552000A86BA0EB080038600020208000BFA8E72F
:10553000980F00203C100020F0B50446DDE9055628
:1055400002EB850020F007004FF0000C071F3846E3
:10555000C7F800C04FF4805C071F3846C7F800C08A
:105560004FF0150C071F3846C7F800C04FF0140C59
:10557000071F3846C7F800C04FF0130C071F384606
:10558000C7F800C04FF0120C071F3846C7F800C01C
:105590004FF0110C071F3846C7F800C04FF0100C31
:1055A000071F3846C7F800C04FF0090C071F3846E0
:1055B000C7F800C04FF0080C071F3846C7F800C0F6
:1055C0004FF0070C071F3846C7F800C04FF0060C15
:1055D000071F3846C7F800C04FF0050C071F3846B4
:1055E000C7F800C04FF0040C071F3846C7F800C0CA
:1055F0004FF0030C071F3846C7F800C04FF0020CED
:10560000071F3846C7F800C04FF0010C071F384687
:10561000C7F800C04FF0000C071F3846C7F800C09D
:105620004FF0807C071F3846C7F800C0071F384678
:105630003C60DFF85CC1071F3846C7F800C04FF078
:10564000123C071F3846C7F800C04FF0033C071F45
:105650003846C7F800C04FF0023C071F3846C7F86D
:1056600000C0071F38463B60071F384639604FF0BF
:10567000310C071F3846C7F800C04FF0300C071F29
:105680003846C7F800C04FF0290C071F3846C7F846
:1056900000C04FF0280C071F3846C7F800C04FF075
:1056A000270C071F3846C7F800C04FF0260C071F0D
:1056B0003846C7F800C04FF0250C071F3846C7F81A
:1056C00000C04FF0240C071F3846C7F800C04FF049
:1056D000230C071F3846C7F800C04FF0220C071FE5
:1056E0003846C7F800C04FF0210C071F3846C7F8EE
:1056F00000C04FF0200C071F3846C7F800C04FF01D
:10570000190C071F3846C7F800C04FF0180C071FC8
:105710003846C7F800C04FF0170C071F3846C7F8C7
:1057200000C04FF0160C071F3846C7F800C04FF0F6
:10573000113C071F3846C7F800C04FF0103C071F48
:105740003846C7F800C04FF0093C071F3846C7F875
:1057500000C04FF0083C071F3846C7F800C04FF0A4
:10576000073C071F3846C7F800C04FF0063C071F2C
:105770003846C7F800C04FF0053C071F3846C7F849
:1057800000C04FF0043C071F3846C7F800C0F0BD0A
:10579000D569000870B505460C460A48007800280F
:1057A00003DD47F25D10208070BD0748854203D1BC
:1057B00047F25B102080F7E72146284601F0F8F910
:1057C00000BFF1E7980F0020B0EF012010B51D4891
:1057D000006810B11B4800688047FCF7E7FE0446EC
:1057E0001948006819490968884215D016480068A8
:1057F000D0F89400201A14490968C1F890001248A2
:105800000068D0F8980010490968D1F89010084451
:105810000D490968C1F898000C480068C0F8944028
:1058200009480068D0F8B00009490968884205D2E3
:105830000748006804490968C1F8B000002004491D
:10584000086010BD8C0F00203C100020401000208C
:10585000C80F00202DE9F04105460E4614460027EA
:1058600027480078002804DD47F275202080BDE835
:10587000F08124480078002803DD46F6635020803C
:10588000F5E736B1022E05D0042E0AD0082E09D134
:1058900001E000BF00BF1DB947F27E202080E6E78F
:1058A00004E003E045F625602080E0E700BF00BF8C
:1058B00000BFFAF753FD074600BF00BF234632463C
:1058C00029461148006801F043FA208838B100BF2A
:1058D00000BF3846FAF746FD00BF00BFC7E70A48D9
:1058E000006800F091FC00BF00BF3846FAF73AFDAF
:1058F00000BF00BFFFF792F80020208000BFB6E78E
:10590000980F0020CC0F00203C10002008B500F0BC
:105910002BF86A4600210E48FFF784FD0D490978EF
:1059200001EB41010C4A02EB810000F0C7FC0B487F
:105930000068401E094908600846006838B90848F0
:10594000006808606A4600210648FFF76BFD08BD45
:105950003CF40120B20F00207CF001203810002020
:105960003410002028F5012010B50348006810B15C
:1059700001480068804710BD900F0020244A254947
:10598000254A264A2649274A2748284A284A294A92
:10599000294A2A482A482B4A2B482C4A2C482D4A67
:1059A0002D482E482E482F482F4A304A304A314839
:1059B000314A324A3248334833483448344835480B
:1059C0003548364A364A374A374A384838483948D7
:1059D000394A3A4A3A4A3B483B483C483C493D48A8
:1059E0003D4A3E4A3E4A3F4A3F4A404A404A414871
:1059F000414A424A42484348434A444A4448454A45
:105A0000454A4648464800BF00BF00BF70470000F7
:105A10006CC10008D0C200086DC100086EC100084A
:105A200070C1000874C1000878C1000875C1000881
:105A3000A0C10008A1C10008A2C10008A4C10008BB
:105A4000A6C10008AAC10008ACC10008CCC100086A
:105A5000CEC10008D0C10008D2C10008D4C10008DE
:105A6000D6C10008D8C1000804C2000805C2000859
:105A700006C2000808C200080AC200080BC20008DB
:105A80000CC200080EC2000810C2000812C20008B2
:105A900014C2000816C2000818C2000848C2000854
:105AA00049C200084AC200084BC200084CC20008A4
:105AB0004EC2000850C2000878C2000879C200082F
:105AC0007AC200087BC200087CC200087EC20008BF
:105AD00080C2000884C2000885C2000886C200088F
